{
  "_format": "hh-sol-artifact-1",
  "contractName": "Voting",
  "sourceName": "contracts/Voting.sol",
  "abi": [
    {
      "inputs": [
        {
          "internalType": "string[]",
          "name": "_candidateNames",
          "type": "string[]"
        },
        {
          "internalType": "uint256",
          "name": "_durationInMinutes",
          "type": "uint256"
        }
      ],
      "stateMutability": "nonpayable",
      "type": "constructor"
    },
    {
      "inputs": [
        {
          "internalType": "string",
          "name": "_name",
          "type": "string"
        }
      ],
      "name": "addCandidate",
      "outputs": [],
      "stateMutability": "nonpayable",
      "type": "function"
    },
    {
      "inputs": [
        {
          "internalType": "uint256",
          "name": "",
          "type": "uint256"
        }
      ],
      "name": "candidates",
      "outputs": [
        {
          "internalType": "string",
          "name": "name",
          "type": "string"
        },
        {
          "internalType": "uint256",
          "name": "voteCount",
          "type": "uint256"
        }
      ],
      "stateMutability": "view",
      "type": "function"
    },
    {
      "inputs": [],
      "name": "getAllVotesOfCandiates",
      "outputs": [
        {
          "components": [
            {
              "internalType": "string",
              "name": "name",
              "type": "string"
            },
            {
              "internalType": "uint256",
              "name": "voteCount",
              "type": "uint256"
            }
          ],
          "internalType": "struct Voting.Candidate[]",
          "name": "",
          "type": "tuple[]"
        }
      ],
      "stateMutability": "view",
      "type": "function"
    },
    {
      "inputs": [],
      "name": "getRemainingTime",
      "outputs": [
        {
          "internalType": "uint256",
          "name": "",
          "type": "uint256"
        }
      ],
      "stateMutability": "view",
      "type": "function"
    },
    {
      "inputs": [],
      "name": "getVotingStatus",
      "outputs": [
        {
          "internalType": "bool",
          "name": "",
          "type": "bool"
        }
      ],
      "stateMutability": "view",
      "type": "function"
    },
    {
      "inputs": [
        {
          "internalType": "address",
          "name": "_voter",
          "type": "address"
        }
      ],
      "name": "hasAddressVoted",
      "outputs": [
        {
          "internalType": "bool",
          "name": "",
          "type": "bool"
        }
      ],
      "stateMutability": "view",
      "type": "function"
    },
    {
      "inputs": [
        {
          "internalType": "address",
          "name": "",
          "type": "address"
        }
      ],
      "name": "hasVoted",
      "outputs": [
        {
          "internalType": "bool",
          "name": "",
          "type": "bool"
        }
      ],
      "stateMutability": "view",
      "type": "function"
    },
    {
      "inputs": [
        {
          "internalType": "uint256",
          "name": "_candidateIndex",
          "type": "uint256"
        }
      ],
      "name": "vote",
      "outputs": [],
      "stateMutability": "nonpayable",
      "type": "function"
    },
    {
      "inputs": [
        {
          "internalType": "address",
          "name": "",
          "type": "address"
        }
      ],
      "name": "voters",
      "outputs": [
        {
          "internalType": "bool",
          "name": "",
          "type": "bool"
        }
      ],
      "stateMutability": "view",
      "type": "function"
    },
    {
      "inputs": [],
      "name": "votingEnd",
      "outputs": [
        {
          "internalType": "uint256",
          "name": "",
          "type": "uint256"
        }
      ],
      "stateMutability": "view",
      "type": "function"
    },
    {
      "inputs": [],
      "name": "votingStart",
      "outputs": [
        {
          "internalType": "uint256",
          "name": "",
          "type": "uint256"
        }
      ],
      "stateMutability": "view",
      "type": "function"
    }
  ],
  "bytecode": "0x60806040523480156200001157600080fd5b5060405162001ad338038062001ad3833981810160405281019062000037919062000419565b60005b8251811015620000dc57600060405180604001604052808584815181106200006757620000666200047f565b5b60200260200101518152602001600081525090806001815401808255809150506001900390600052602060002090600202016000909190919091506000820151816000019081620000b99190620006ef565b506020820151816001015550508080620000d39062000805565b9150506200003a565b5033600160006101000a81548173ffffffffffffffffffffffffffffffffffffffff021916908373ffffffffffffffffffffffffffffffffffffffff16021790555042600481905550603c8162000134919062000852565b426200014191906200089d565b6005819055505050620008d8565b6000604051905090565b600080fd5b600080fd5b600080fd5b6000601f19601f8301169050919050565b7f4e487b7100000000000000000000000000000000000000000000000000000000600052604160045260246000fd5b620001b38262000168565b810181811067ffffffffffffffff82111715620001d557620001d462000179565b5b80604052505050565b6000620001ea6200014f565b9050620001f88282620001a8565b919050565b600067ffffffffffffffff8211156200021b576200021a62000179565b5b602082029050602081019050919050565b600080fd5b600080fd5b600067ffffffffffffffff82111562000254576200025362000179565b5b6200025f8262000168565b9050602081019050919050565b60005b838110156200028c5780820151818401526020810190506200026f565b60008484015250505050565b6000620002af620002a98462000236565b620001de565b905082815260208101848484011115620002ce57620002cd62000231565b5b620002db8482856200026c565b509392505050565b600082601f830112620002fb57620002fa62000163565b5b81516200030d84826020860162000298565b91505092915050565b60006200032d6200032784620001fd565b620001de565b905080838252602082019050602084028301858111156200035357620003526200022c565b5b835b81811015620003a157805167ffffffffffffffff8111156200037c576200037b62000163565b5b8086016200038b8982620002e3565b8552602085019450505060208101905062000355565b5050509392505050565b600082601f830112620003c357620003c262000163565b5b8151620003d584826020860162000316565b91505092915050565b6000819050919050565b620003f381620003de565b8114620003ff57600080fd5b50565b6000815190506200041381620003e8565b92915050565b6000806040838503121562000433576200043262000159565b5b600083015167ffffffffffffffff8111156200045457620004536200015e565b5b6200046285828601620003ab565b9250506020620004758582860162000402565b9150509250929050565b7f4e487b7100000000000000000000000000000000000000000000000000000000600052603260045260246000fd5b600081519050919050565b7f4e487b7100000000000000000000000000000000000000000000000000000000600052602260045260246000fd5b600060028204905060018216806200050157607f821691505b602082108103620005175762000516620004b9565b5b50919050565b60008190508160005260206000209050919050565b60006020601f8301049050919050565b600082821b905092915050565b600060088302620005817fffffffffffffffffffffffffffffffffffffffffffffffffffffffffffffffff8262000542565b6200058d868362000542565b95508019841693508086168417925050509392505050565b6000819050919050565b6000620005d0620005ca620005c484620003de565b620005a5565b620003de565b9050919050565b6000819050919050565b620005ec83620005af565b62000604620005fb82620005d7565b8484546200054f565b825550505050565b600090565b6200061b6200060c565b62000628818484620005e1565b505050565b5b8181101562000650576200064460008262000611565b6001810190506200062e565b5050565b601f8211156200069f5762000669816200051d565b620006748462000532565b8101602085101562000684578190505b6200069c620006938562000532565b8301826200062d565b50505b505050565b600082821c905092915050565b6000620006c460001984600802620006a4565b1980831691505092915050565b6000620006df8383620006b1565b9150826002028217905092915050565b620006fa82620004ae565b67ffffffffffffffff81111562000716576200071562000179565b5b620007228254620004e8565b6200072f82828562000654565b600060209050601f83116001811462000767576000841562000752578287015190505b6200075e8582620006d1565b865550620007ce565b601f19841662000777866200051d565b60005b82811015620007a1578489015182556001820191506020850194506020810190506200077a565b86831015620007c15784890151620007bd601f891682620006b1565b8355505b6001600288020188555050505b505050505050565b7f4e487b7100000000000000000000000000000000000000000000000000000000600052601160045260246000fd5b60006200081282620003de565b91507fffffffffffffffffffffffffffffffffffffffffffffffffffffffffffffffff8203620008475762000846620007d6565b5b600182019050919050565b60006200085f82620003de565b91506200086c83620003de565b92508282026200087c81620003de565b91508282048414831517620008965762000895620007d6565b5b5092915050565b6000620008aa82620003de565b9150620008b783620003de565b9250828201905080821115620008d257620008d1620007d6565b5b92915050565b6111eb80620008e86000396000f3fe608060405234801561001057600080fd5b50600436106100a95760003560e01c80634d6bda5f116100715780634d6bda5f14610165578063581c281c1461018357806385a38635146101a1578063a3ec138d146101bf578063e3e6ca7d146101ef578063efb98bcf1461021f576100a9565b80630121b93f146100ae57806309eef43e146100ca578063101158af146100fa5780633477ee2e14610118578063462e91ec14610149575b600080fd5b6100c860048036038101906100c391906107e9565b61023d565b005b6100e460048036038101906100df9190610874565b6103ff565b6040516100f191906108bc565b60405180910390f35b61010261041f565b60405161010f91906108e6565b60405180910390f35b610132600480360381019061012d91906107e9565b610425565b604051610140929190610991565b60405180910390f35b610163600480360381019061015e9190610af6565b6104e1565b005b61016d6105a1565b60405161017a9190610c97565b60405180910390f35b61018b61069c565b60405161019891906108bc565b60405180910390f35b6101a96106b6565b6040516101b691906108e6565b60405180910390f35b6101d960048036038101906101d49190610874565b6106bc565b6040516101e691906108bc565b60405180910390f35b61020960048036038101906102049190610874565b6106dc565b60405161021691906108bc565b60405180910390f35b610227610732565b60405161023491906108e6565b60405180910390f35b600260003373ffffffffffffffffffffffffffffffffffffffff1673ffffffffffffffffffffffffffffffffffffffff16815260200190815260200160002060009054906101000a900460ff16156102ca576040517f08c379a00000000000000000000000000000000000000000000000000000000081526004016102c190610d05565b60405180910390fd5b6000805490508110610311576040517f08c379a000000000000000000000000000000000000000000000000000000000815260040161030890610d71565b60405180910390fd5b6000818154811061032557610324610d91565b5b9060005260206000209060020201600101600081548092919061034790610def565b91905055506001600260003373ffffffffffffffffffffffffffffffffffffffff1673ffffffffffffffffffffffffffffffffffffffff16815260200190815260200160002060006101000a81548160ff0219169083151502179055506001600360003373ffffffffffffffffffffffffffffffffffffffff1673ffffffffffffffffffffffffffffffffffffffff16815260200190815260200160002060006101000a81548160ff02191690831515021790555050565b60036020528060005260406000206000915054906101000a900460ff1681565b60045481565b6000818154811061043557600080fd5b906000526020600020906002020160009150905080600001805461045890610e66565b80601f016020809104026020016040519081016040528092919081815260200182805461048490610e66565b80156104d15780601f106104a6576101008083540402835291602001916104d1565b820191906000526020600020905b8154815290600101906020018083116104b457829003601f168201915b5050505050908060010154905082565b600160009054906101000a900473ffffffffffffffffffffffffffffffffffffffff1673ffffffffffffffffffffffffffffffffffffffff163373ffffffffffffffffffffffffffffffffffffffff161461053b57600080fd5b600060405180604001604052808381526020016000815250908060018154018082558091505060019003906000526020600020906002020160009091909190915060008201518160000190816105919190611043565b5060208201518160010155505050565b60606000805480602002602001604051908101604052809291908181526020016000905b8282101561069357838290600052602060002090600202016040518060400160405290816000820180546105f890610e66565b80601f016020809104026020016040519081016040528092919081815260200182805461062490610e66565b80156106715780601f1061064657610100808354040283529160200191610671565b820191906000526020600020905b81548152906001019060200180831161065457829003601f168201915b50505050508152602001600182015481525050815260200190600101906105c5565b50505050905090565b600060045442101580156106b1575060055442105b905090565b60055481565b60026020528060005260406000206000915054906101000a900460ff1681565b6000600360008373ffffffffffffffffffffffffffffffffffffffff1673ffffffffffffffffffffffffffffffffffffffff16815260200190815260200160002060009054906101000a900460ff169050919050565b6000600454421015610779576040517f08c379a000000000000000000000000000000000000000000000000000000000815260040161077090611161565b60405180910390fd5b600554421061078b576000905061079c565b426005546107999190611181565b90505b90565b6000604051905090565b600080fd5b600080fd5b6000819050919050565b6107c6816107b3565b81146107d157600080fd5b50565b6000813590506107e3816107bd565b92915050565b6000602082840312156107ff576107fe6107a9565b5b600061080d848285016107d4565b91505092915050565b600073ffffffffffffffffffffffffffffffffffffffff82169050919050565b600061084182610816565b9050919050565b61085181610836565b811461085c57600080fd5b50565b60008135905061086e81610848565b92915050565b60006020828403121561088a576108896107a9565b5b60006108988482850161085f565b91505092915050565b60008115159050919050565b6108b6816108a1565b82525050565b60006020820190506108d160008301846108ad565b92915050565b6108e0816107b3565b82525050565b60006020820190506108fb60008301846108d7565b92915050565b600081519050919050565b600082825260208201905092915050565b60005b8381101561093b578082015181840152602081019050610920565b60008484015250505050565b6000601f19601f8301169050919050565b600061096382610901565b61096d818561090c565b935061097d81856020860161091d565b61098681610947565b840191505092915050565b600060408201905081810360008301526109ab8185610958565b90506109ba60208301846108d7565b9392505050565b600080fd5b600080fd5b7f4e487b7100000000000000000000000000000000000000000000000000000000600052604160045260246000fd5b610a0382610947565b810181811067ffffffffffffffff82111715610a2257610a216109cb565b5b80604052505050565b6000610a3561079f565b9050610a4182826109fa565b919050565b600067ffffffffffffffff821115610a6157610a606109cb565b5b610a6a82610947565b9050602081019050919050565b82818337600083830152505050565b6000610a99610a9484610a46565b610a2b565b905082815260208101848484011115610ab557610ab46109c6565b5b610ac0848285610a77565b509392505050565b600082601f830112610add57610adc6109c1565b5b8135610aed848260208601610a86565b91505092915050565b600060208284031215610b0c57610b0b6107a9565b5b600082013567ffffffffffffffff811115610b2a57610b296107ae565b5b610b3684828501610ac8565b91505092915050565b600081519050919050565b600082825260208201905092915050565b6000819050602082019050919050565b600082825260208201905092915050565b6000610b8782610901565b610b918185610b6b565b9350610ba181856020860161091d565b610baa81610947565b840191505092915050565b610bbe816107b3565b82525050565b60006040830160008301518482036000860152610be18282610b7c565b9150506020830151610bf66020860182610bb5565b508091505092915050565b6000610c0d8383610bc4565b905092915050565b6000602082019050919050565b6000610c2d82610b3f565b610c378185610b4a565b935083602082028501610c4985610b5b565b8060005b85811015610c855784840389528151610c668582610c01565b9450610c7183610c15565b925060208a01995050600181019050610c4d565b50829750879550505050505092915050565b60006020820190508181036000830152610cb18184610c22565b905092915050565b7f596f75206861766520616c726561647920766f7465642e000000000000000000600082015250565b6000610cef60178361090c565b9150610cfa82610cb9565b602082019050919050565b60006020820190508181036000830152610d1e81610ce2565b9050919050565b7f496e76616c69642063616e64696461746520696e6465782e0000000000000000600082015250565b6000610d5b60188361090c565b9150610d6682610d25565b602082019050919050565b60006020820190508181036000830152610d8a81610d4e565b9050919050565b7f4e487b7100000000000000000000000000000000000000000000000000000000600052603260045260246000fd5b7f4e487b7100000000000000000000000000000000000000000000000000000000600052601160045260246000fd5b6000610dfa826107b3565b91507fffffffffffffffffffffffffffffffffffffffffffffffffffffffffffffffff8203610e2c57610e2b610dc0565b5b600182019050919050565b7f4e487b7100000000000000000000000000000000000000000000000000000000600052602260045260246000fd5b60006002820490506001821680610e7e57607f821691505b602082108103610e9157610e90610e37565b5b50919050565b60008190508160005260206000209050919050565b60006020601f8301049050919050565b600082821b905092915050565b600060088302610ef97fffffffffffffffffffffffffffffffffffffffffffffffffffffffffffffffff82610ebc565b610f038683610ebc565b95508019841693508086168417925050509392505050565b6000819050919050565b6000610f40610f3b610f36846107b3565b610f1b565b6107b3565b9050919050565b6000819050919050565b610f5a83610f25565b610f6e610f6682610f47565b848454610ec9565b825550505050565b600090565b610f83610f76565b610f8e818484610f51565b505050565b5b81811015610fb257610fa7600082610f7b565b600181019050610f94565b5050565b601f821115610ff757610fc881610e97565b610fd184610eac565b81016020851015610fe0578190505b610ff4610fec85610eac565b830182610f93565b50505b505050565b600082821c905092915050565b600061101a60001984600802610ffc565b1980831691505092915050565b60006110338383611009565b9150826002028217905092915050565b61104c82610901565b67ffffffffffffffff811115611065576110646109cb565b5b61106f8254610e66565b61107a828285610fb6565b600060209050601f8311600181146110ad576000841561109b578287015190505b6110a58582611027565b86555061110d565b601f1984166110bb86610e97565b60005b828110156110e3578489015182556001820191506020850194506020810190506110be565b8683101561110057848901516110fc601f891682611009565b8355505b6001600288020188555050505b505050505050565b7f566f74696e6720686173206e6f742073746172746564207965742e0000000000600082015250565b600061114b601b8361090c565b915061115682611115565b602082019050919050565b6000602082019050818103600083015261117a8161113e565b9050919050565b600061118c826107b3565b9150611197836107b3565b92508282039050818111156111af576111ae610dc0565b5b9291505056fea264697066735822122017bb926f91e06de38031de5b1d49141ad2b8a9c27d254249e06c075a0f2b3eb164736f6c63430008130033",
  "linkReferences": {},
  "deployedLinkReferences": {}
}